:020000040800F2
:1000000000400020E51E0008B90F0008BB0F0008E3
:10001000BD0F0008BF0F0008C10F0008000000005E
:10002000000000000000000000000000C30F0008F6
:10003000C50F000800000000C70F0008C90F000826
:10004000351F0008351F0008351F0008351F000840
:10005000351F0008351F0008351F0008351F000830
:10006000351F0008351F0008351F0008351F000820
:10007000351F0008351F0008351F0008351F000810
:10008000351F0008351F0008351F0008351F000800
:10009000091000081910000829100008351F000871
:1000A000351F0008351F0008351F0008351F0008E0
:1000B000351F00080000000000000000351F000888
:1000C000351F0008351F0008351F0008000000001C
:1000D000351F0008351F0008351F0008351F0008B0
:1000E000351F0008351F0008351F000800000000FC
:1000F0000000000000000000000000000000000000
:10010000000000000000000000000000351F000893
:100110000000000000000000351F00080000000083
:1001200000000000000000000000000000000000CF
:1001300000000000000000000000000000000000BF
:10014000351F0008351F00080000000000000000F7
:10015000000000000000000000000000000000009F
:10016000351F0008351F0008351F0008351F00081F
:10017000351F000800000000000000000000000023
:0801800000000000351F00081B
:1001880010B5054C237833B9044B13B10448AFF3C9
:1001980000800123237010BD100000200000000023
:1001A800801F000808B5034B1BB103490348AFF390
:1001B800008008BD0000000014000020801F000817
:1001C80008B500F02FF9012803D00B4B1B78012B41
:1001D80000D008BD00F078FB084B1B68084A12687D
:1001E800134403F57A739842F3D3034B00221A7031
:1001F80000F024F9EDE700BF340000202C000020B7
:100208003000002008B5054B1B78012B00D008BD35
:1002180000F05AFB024B1860F9E700BF34000020D9
:100228003000002008B5044B01221A70FFF7EAFFDE
:10023800FFF7C6FF08BD00BF3400002008B500F076
:10024800F9F800F0F5F800F01FFB00F0F9FA322099
:1002580000F0B6FA00F018FB00F08AF8FFF7E2FFAA
:1002680008BD08B500F0E5F800F020FB00F08CF8B8
:10027800FFF7A6FF00F0AAFA08BD72B6704762B68B
:100288007047000070B58AB0184C194B23600025E0
:1002980025766576A5760126E67625776577A560C5
:1002A800E5604FF4602323614FF4801363610223F8
:1002B8006360204600F01EFF0595069507964FF4EB
:1002C800A453009301954FF6E0730293042303931C
:1002D800049508960E2309936946204600F0B0FF5E
:1002E800204601F030F80AB070BD00BF3800002089
:1002F8000064004010B588B002464FF4FD730293C5
:10030800002304930593069101AB02A90B4801F061
:1003180048F808B108B010BD00F0D6FA00F1320470
:100328000199064801F0B2F80028F3D000F081F8EE
:1003380000F0CAFAA042F3D9ECE700BF3800002069
:1003480010B588B003460C4601AA0021074801F001
:10035800B0F840B9019BA42B06D1039B23B9059B98
:100368002370012000E0002008B010BD38000020F4
:1003780008B500F04FFCFFF785FF024B01221A7009
:1003880008BD00BF0000002000B583B00DF10701D3
:100398000848FFF7D5FF012802D003B05DF804FB39
:1003A800054B01221A709DF80710024800F052FC14
:1003B800F3E700BF60000020000000207047000045
:1003C80008B5054B1B78012B02D000F03BFC08BD9B
:1003D800C9B2FFF78FFFF8E700000020074B1B7832
:1003E800022B05D0032B05D0012B05D1082070471F
:1003F8003F207047002070474020704700000020D1
:10040800074B1B78022B05D0032B05D0012B05D1F8
:10041800082070473F2070470020704740207047F1
:100428000000002008B500F005FC00B1012008BD5F
:100438007047704708B5FFF720FF08BD10B500F0FA
:100448000BFA00B910BD00F0B5F90028FAD0FFF793
:10045800B5FF00F0F9FD00F00FFA00F001FA20F006
:10046800604020F07F00044B986000F0F9F9446880
:10047800FFF705FFA047E5E700ED00E070B50D4682
:10048800044606E015F8013B04F8013BFFF7D1FFED
:100498003246531E9EB2002AF4D170BD08B5C1F38E
:1004A800080353B903688B4209D040F8041B4FF482
:1004B8000072FFF7E3FF012008BD0020FCE70120E0
:1004C800FAE72DE9F041074601F082FA00247F2C73
:1004D80015D83E6806EB840807EB84035D68FFF7D0
:1004E800A8FF2A4600234146022001F0C5FA8046AB
:1004F80040B956F82430AB4206D10134E7E74FF053
:10050800010801E04FF0000801F07CFA4046BDE820
:10051800F081000038B50D460C4B984211D00446C6
:100528000B4B994207D1094C29462046FFF7B6FFE5
:1005380048B1204638BDFFF7C4FF0028F4D1002495
:10054800F7E7044CF0E70024F3E700BFA000002021
:1005580000200008A40200202DE9F04106460C46C0
:1005680017461D4621F4FF7828F001080368B3F107
:10057800FF3F07D0336843450AD13368E41A34444F
:10058800043414E04146FFF789FF0028F2D11FE048
:1005980041463046FFF7BEFF06460028EDD1002051
:1005A80016E017F8013B04F8013B013D0FD0FFF7B7
:1005B80040FF311D611AB1F5007FF2D308F50071D3
:1005C8003046FFF7A7FF064620B1041DE9E70120E2
:1005D800BDE8F0810020FBE74FF0FF33024A1360CB
:1005E800024A1360704700BFA4020020A000002048
:1005F8000B4601F1FF3C1249091A8C4519D81149DB
:10060800884218D310B5191801390D4CA14214D8D5
:1006180020F4FF7424F001040A498C4204D00146F6
:100628000948FFF799FF10BD01460848FFF794FFF6
:10063800F9E700207047002070470020F3E700BF6B
:10064800FFFF030800200008A4020020A0000020EB
:1006580030B585B0002303934A1E1F4B1B1A9A42DC
:1006680031D820F4FF6323F007031C4A93422ED3AA
:100678000A18013A184CA2422BD8C01A0844C0F3F1
:10068800CF25C0F30A0008B10135ADB200240094AB
:1006980001930123029301F09BF9A5420DD9FFF7BD
:1006A800C8FE03A9684601F05BFA50B9019B03F53F
:1006B800006301930134A4B2EFE7012401F0A2F929
:1006C80002E00024FAE70024204605B030BD0024EB
:1006D800FAE70024F8E700BFFFFF0308002000083E
:1006E80000B583B000230193134B1B68B3F1FF3FA0
:1006F80020D0114A5368019391680B440193D16843
:100708000B44019311690B44019351690B44019304
:1007180091690B440193D26913440193DA4301921E
:100728005B42019301AA04210448FFF761FF03B06B
:100738005DF804FB0120FAE7A000002088210008EA
:100748000A4B1A68596811449A681144DA681144C6
:100758001A6911445A6911449A690A44D3F88831CC
:10076800D34201D0002070470120704700200008C4
:1007780008B50C4B1B68B3F1FF3F06D10A4B1B6849
:10078800B3F1FF3F07D1012008BD0648FFF799FEE6
:100798000028F3D1F8E70448FFF793FE0028F3D0C8
:1007A8000120F1E7A0000020A402002000487047C3
:1007B8000020000808B501F011FB012008BD000069
:1007C800014B1860704700BFB004002008B500F066
:1007D8007BF8174B1B68984218D3164B1B78B3B994
:1007E8000122144B1A704FF40041134801F0E8FA43
:1007F80000224FF480714FF0904001F0E1FA00F0D0
:1008080063F80E4B1B681844094B186008BD00229A
:10081800084B1A704FF480714FF0904001F0D0FAF5
:1008280001224FF480714FF0904001F0C9FAE6E7D9
:10083800AC040020A804002000040048B0040020F4
:1008480008B5FFF7C9FE08BD08B5FFF7D1FE08BD1A
:1008580008B5FFF7FDFE08BD08B5FFF771FF08BD35
:1008680008B5FFF7A3FF08BD08B5FFF739FF00B9C2
:1008780008BDFFF77DFFFBE74FF0E02300221A6178
:100888005A619A617047000008B5FFF7F5FF4FF00D
:10089800E023044A5A6100229A6105211961024B3A
:1008A8001A6008BD3F190100B40400204FF0E0238E
:1008B8001B6913F4803F03D0024A136801331360A5
:1008C800704700BFB404002008B5FFF7EFFF014BE5
:1008D800186808BDB404002008B5FFF7F5FF08BD87
:1008E800024B002283F84120704700BFB804002063
:1008F800034BFE221A7058700222A3F84420704756
:10090800B80400200378427843EA0223827843EA55
:100918000243C07843EA006070470870C0F30723B9
:100928004B70C0F307438B70000EC870704700000F
:1009380010B5064C002384F84030FFF7D1FFFF23A1
:1009480023700123A4F8443010BD00BFB804002070
:10095800074BFF221A7000225A7093F841109970C1
:10096800DA701A715A710622A3F84420704700BF42
:10097800B804002008B50020FFF7BAFF08BD000042
:1009880010B5084CFF232370074BA3640023637042
:10099800A370E370211D0720FFF7BFFF0823A4F809
:1009A800443010BDB8040020981F000810B5054C4D
:1009B800FF2323700430FFF7A5FFA0640123A4F8E8
:1009C800443010BDB804002008B53120FFF790FF6F
:1009D80008BD000038B5084CFF232370002565705A
:1009E800A570FFF7FBFCE07025716571A571072301
:1009F800A4F8443038BD00BFB804002038B5FFF76C
:100A08006FFF0F4C012584F84050FF23237000230B
:100A1800637010226270A370FFF7E0FCE070FFF7CC
:100A2800EFFC2071FFF7ECFCC0F307206071A571A3
:100A3800E5710823A4F84430FFF702FF38BD00BF72
:100A4800B804002038B50446FFF7C8FC6278904225
:100A58000FD90A4DA96C681CFFF710FDFF232B70F6
:100A6800AB6C62781344AB6463780133A5F8443007
:100A780038BD2220FFF73CFFFAE700BFB80400208A
:100A880038B50446FFF7AAFC6378984214D9201DAC
:100A9800FFF738FF01460A4DA8646278681CFFF723
:100AA800EDFCFF232B70AB6C62781344AB64637866
:100AB8000133A5F8443038BD2220FFF719FFFAE7C3
:100AC800B8040020F8B505461746002406E015F8D6
:100AD800013B1C44E4B2FFF7ACFC31464E1E002932
:100AE800F5D13C600120F8BD30B583B000250195F3
:100AF8000B4CFF2323700430FFF704FF014601AAC3
:100B0800A06CFFF7DFFF6070211D0198FFF705FF5C
:100B1800A570E5700823A4F8443003B030BD00BFC9
:100B2800B804002038B504460D4B9D6CFFF756FC01
:100B3800621C411E2846FFF787FE60B1084CFF2360
:100B48002370FFF74BFCA36C01380344A364012313
:100B5800A4F8443038BD3120FFF7CAFEFAE700BFD9
:100B6800B804002010B50446FFF738FC0138637854
:100B7800984213DD114BFF221A700122A3F844207A
:100B8800617879B1A21C0D4B986CFFF75DFE88B1B6
:100B98000A4A936C61780B44936410BD2220FFF7D6
:100BA800A7FEFAE7FFF760FE0028F6D13120FFF72D
:100BB8009FFEF2E73120FFF79BFEEEE7B804002026
:100BC80010B50A4B9C6C0430FFF79CFE014620468A
:100BD800FFF73EFE30B1054BFF221A700122A3F841
:100BE800442010BD3120FFF783FEFAE7B804002047
:100BF80008B5FFF723FC034BFF221A700122A3F864
:100C0800442008BDB804002008B589B2FFF7D8FB16
:100C180008BD0000064B002283F840209A6483F840
:100C28004320A3F8442083F8422083F841207047EA
:100C3800B8040020024B93F8400000B1012070472F
:100C4800B8040020024B002283F84320704700BFFD
:100C5800B804002008B50378FF2B24D0354A92F851
:100C68004020012A2BD1C93B352B53D8DFE803F0AC
:100C78004052524F52524C4349465252525252528B
:100C8800525252525252525252525252525252523C
:100C980052525252525252525252312B282E5252C2
:100CA800523452373A3DFFF7A9FE224B93F84330AE
:100CB800012B33D01F4BB3F94410002932DC08BD97
:100CC800FFF7C0FEF1E7FFF7DBFEEEE7FFF76EFE8A
:100CD800EBE7FFF709FFE8E7FFF752FEE5E7FFF765
:100CE80049FEE2E7FFF734FEDFE7FFF721FEDCE726
:100CF800FFF718FFD9E7FFF735FFD6E7FFF76AFEDA
:100D0800D3E7FFF75DFFD0E7FFF772FFCDE7FFF707
:100D18005BFECAE72020FFF7EBFDC6E71020FFF7D0
:100D2800E7FDC7E71846012380F84330FFF76CFF5B
:100D3800C5E700BFB804002070B588B0002403944C
:100D48000494059406940794214B5A6942F480024E
:100D58005A615A6902F480020092009A5A6942F470
:100D680080225A615A6902F480220192019A5A69D2
:100D780042F400325A615B6903F400330293029B28
:100D8800144E22464FF40041304601F019F8012272
:100D98004FF480714FF0904001F012F84FF4004387
:100DA8000393012504950594069403A9304600F0A1
:100DB80029FF4FF480730393049502230593069447
:100DC80003A94FF0904000F01DFF08B070BD00BFB0
:100DD800001002400004004872B6FEE708B50D484E
:100DE8000D4B03600223436000238360C3604FF40C
:100DF800602202614FF4801242610376012242763A
:100E08008376C3760377437700F074F900B908BD99
:100E1800FFF7E2FF040500200064004008B5284AF7
:100E2800136823F0070343F002031360244B1B6885
:100E380003F00703022BF9D1224A136843F48033E5
:100E48001360204B1B6813F4003FFAD01D4B5A68FF
:100E580022F4741242F4E8125A60DA6A22F00F029D
:100E6800DA621A6842F080721A60164B1B6813F037
:100E7800007FFAD0134B5A6822F0F0025A605A6881
:100E880022F4E06242F480625A605A6822F46052A6
:100E98005A605A6822F0030242F002025A60094B73
:100EA8005B6803F00C03082BF9D1074801F010F830
:100EB8000F2000F0DBF800B908BDFFF78DFF00BF79
:100EC800002002400010024000A24A0408B500F0C9
:100ED800F3F8FFF7A3FFFFF72FFFFFF77FFFFFF7F9
:100EE800ADF9FFF7BEF9FCE782B00A4B9A6942F008
:100EF80001029A619A6902F001020092009ADA6985
:100F080042F08052DA61DB6903F080530193019B60
:100F180002B070470010024000B589B00023039367
:100F280004930593069307930268204B9A4202D0D4
:100F380009B05DF804FB03F5D633DA6942F00072B4
:100F4800DA61DA6902F000720192019A5A6942F490
:100F580000325A615B6903F400330293029B4FF439
:100F6800C05303930223049303230693092307938F
:100F780003A94FF0904000F045FE002211461420CE
:100F880000F0C8FC142000F0D5FC00221146152002
:100F980000F0C0FC152000F0CDFC00221146162000
:100FA80000F0B8FC162000F0C5FCC1E70064004062
:100FB800FEE7FEE7FEE7FEE7FEE77047704770478B
:100FC80008B500F08BF8FFF787FC0B4B1B68C01ABD
:100FD800FA2800D808BD4FF40041084800F0F5FE93
:100FE8004FF480714FF0904000F0EFFEFFF774FC73
:100FF800014B1860EEE700BF2C05002000040048F4
:1010080008B5024800F017FB08BD00BF0405002022
:1010180008B5024800F00FFB08BD00BF040500201A
:1010280008B5024800F007FB08BD00BF0405002012
:10103800034AD2F8883043F47003C2F88830704706
:1010480000ED00E07047000010B5074B4FF0FF328D
:101058001A6100241C61DA60DC609A629C62FFF706
:10106800F1FF204610BD00BF0010024010B5044635
:101078000E4B1A784FF47A73B3FBF2F30C4A1068EC
:10108800B0FBF3F000F064FC68B90F2C01D9012023
:101098000AE0002221464FF0FF3000F03BFC054BF0
:1010A8001C60002000E0012010BD00BF08000020E7
:1010B800040000200C00002008B5074A136843F01C
:1010C80010031360032000F013FC0F20FFF7CEFF7E
:1010D800FFF70AFF002008BD00200240034A1168FC
:1010E800034B1B780B441360704700BF300500208A
:1010F80008000020002800F0A18038B5044690F8C8
:101108002030D3B12268136843F001031360FFF75E
:10111800E3FB054623685A6812F0010F10D1FFF768
:10112800DBFB401B0A28F5D9636A43F4003363628A
:10113800052384F82030012038BDFFF7EDFEE1E7F4
:101148001A6822F002021A60FFF7C6FB05462368F8
:101158005A6812F0020F0DD0FFF7BEFB401B0A2899
:10116800F5D9636A43F400336362052384F82030B9
:101178000120E1E7227E012A3DD01A6822F0800290
:101188001A60637E012B3BD02268136823F040036A
:101198001360A37E012B39D02268136823F0200343
:1011A8001360E37E012B37D02268136843F01003E5
:1011B8001360237F012B35D02268136823F00803BE
:1011C8001360637F012B33D02268136823F0040374
:1011D8001360A368E26813432269134362691343E7
:1011E8006268013A21681343CB61002060620123E1
:1011F80084F82030A0E71A6842F080021A60C0E73D
:101208002268136843F040031360C2E7226813683A
:1012180043F020031360C4E72268136823F0100327
:101228001360C6E72268136843F008031360C8E731
:101238002268136843F004031360CAE7012070476B
:10124800026890F82030013BDBB2012B05D9436AD4
:1012580043F4802343620120704730B4D2F800324F
:1012680043F00103C2F800324B6903F01F03012069
:1012780000FA03F3D2F81C026FEA030C20EA030019
:10128800C2F81C02C869B0B9D2F80C020CEA000016
:10129800C2F80C028C884869CD6844EA0544483095
:1012A80042F830400C8848698D6844EA0544483063
:1012B80002EBC0004460C86901281BD0886980BB64
:1012C800D2F804020CEA0000C2F80402086970BBF4
:1012D800D2F814020CEA0000C2F81402096A0129C3
:1012E8002BD0D2F8003223F00103C2F800320020DC
:1012F80030BC7047D2F80C021843C2F80C028C8834
:1013080048690D6844EA0544483042F830408C8901
:1013180048698D6844EA0544483002EBC0004460DF
:10132800CCE7D2F804021843C2F80402CEE7D2F898
:1013380014021843C2F81402D0E7D2F81C120B4367
:10134800C2F81C32CDE770B5044690F82050EDB2D3
:10135800012D06D0436A43F4002343620125284641
:1013680070BD022380F820300268136823F001035F
:101378001360FFF7B1FA064623685B6813F0010FA4
:101388000CD0FFF7A9FA831B0A2BF5D9636A43F43B
:1013980000336362052384F82030E0E700256562A6
:1013A800DDE730B590F820C00468A4680CF1FF3C74
:1013B8005FFA8CFCBCF1010F62D814F0E05F59D0E1
:1013C800C4F3016C012404FA0CF41C608B68002B34
:1013D8003DD10D68CB68046843EA45550CF1180304
:1013E8001B01E55003680C690CF1180E03EB0E1392
:1013F8005C600B7D012B35D0D17993791B0443EACE
:101408000163517943EA012314790168234301EB0D
:101418000C11C1F88C31D17893781B0443EA01632D
:10142800517843EA0123117802680B4302EB0C124E
:10143800C2F8883102680CF1180C4FEA0C1C52F8FB
:101448000C3043F0010342F80C3000201DE04C68DA
:1014580043EAC403CC6823430CF11804240105684B
:101468002B51BFE7036803EB0E13596841F48071F1
:101478005960C1E7436A43F400134362012004E062
:10148800436A43F480234362012030BD90F8203042
:10149800013BDBB2012B01D90020704703689B6830
:1014A80003EA8163B3EB816F01D00120704700200C
:1014B800704790F820C00CF1FF3C5FFA8CFCBCF13F
:1014C800010F00F2A58030B451B90468E46814F043
:1014D800030F10D1436A43F40013436201207EE0F6
:1014E8000468246914F0030F05D1436A43F4001318
:1014F8004362012073E0056801F11B0424012C59A3
:1015080004F004049460002C6BD1056801F11B04FD
:1015180024012C59640D1460046801F11B0C4FEA76
:101528000C1C54F80C4004F00204D4600468A44471
:10153800DCF8045015F0080F5BD008241461046827
:1015480001F11B0C04EB0C146468C4F307249461C8
:10155800046804EB0C146468240C5461026802EB00
:101568000112D2F8B8211A70026802EB0112D2F8FF
:10157800B821C2F307225A70026802EB0112D2F8AE
:10158800B821C2F307429A70026802EB0112D2F83E
:10159800B821120EDA70026802EB0112D2F8BC21EF
:1015A8001A71026802EB0112D2F8BC21C2F30722B9
:1015B8005A71026802EB0112D2F8BC21C2F3074249
:1015C8009A71026802EB0112D2F8BC21120EDA718C
:1015D800C1B90268D36843F02003D360002030BC4F
:1015E8007047056801F11B0424012C59E408546074
:1015F80092E701F11B0504EB0514646804F00F047D
:1016080014619CE70268136943F020031361E5E75E
:10161800436A43F480234362012070477047704750
:1016280070477047704770477047704770477047FA
:101638007047704770472DE9F84F054603685C69A5
:10164800D3F804809F68D3F80CA0D3F81090D3F88F
:1016580018B014F001063BD017F0010616D001228D
:101668009A6017F0020F08D117F0040F0CD117F089
:10167800080606D04FF4805608E0FFF7CFFF002693
:1016880004E0FFF7CEFF01E04FF4006617F4807F17
:101698000DD02B684FF480729A6017F4007F40F0E9
:1016A800968017F4806F00F0968046F4005617F481
:1016B800803F0DD02B684FF480329A6017F4003FBA
:1016C80040F0938017F4802F00F0938046F4004692
:1016D80014F0080F07D01AF0100F04D046F4007663
:1016E8002B681022DA6014F0040F03D01AF0080FE8
:1016F80040F0898014F0020F05D02B68DB6813F0E6
:10170800030F40F0878014F0400F07D019F0100F36
:1017180004D046F480662B6810221A6114F0200F5A
:1017280002D019F0080F79D114F0100F04D02B68EB
:101738001B6913F0030F78D114F4003F02D018F09E
:10174800100F76D114F4803F02D018F0080F77D12B
:1017580014F4004F37D018F0040F31D014F4807F00
:1017680004D01BF0010F01D046F0010614F4007FED
:1017780004D01BF0020F01D046F0020614F4806F6B
:1017880004D01BF0040F01D046F0040614F4006FD7
:1017980016D01BF0700B13D0BBF1400F66D056D893
:1017A800BBF1200F5CD0BBF1300F5CD0BBF1100F48
:1017B80001D146F008062A68936923F07003936103
:1017C8002B6804225A60002E56D1BDE8F88F2846AF
:1017D800FFF725FF6BE717F4006F02D046F4804649
:1017E80065E72846FFF71EFF61E72846FFF718FF61
:1017F8006EE717F4002F02D046F4803668E72846D3
:10180800FFF711FF64E72B680822DA602846FFF724
:101818000CFF6FE72846FFF707FF74E72B680822DD
:101828001A612846FFF703FF7EE72846FFF7FEFE0A
:1018380082E72B6810225A602846FFF7F9FE81E7F5
:101848002B6808225A602846FFF7F3FE80E7BBF1B1
:10185800500F0ED0BBF1600FADD146F48076AAE7E9
:1018680046F01006A7E746F02006A4E746F0400633
:10187800A1E746F080069EE76B6A33436B62284611
:10188800FFF7D8FEA1E70000002808DB0901C9B26C
:1018980000F1604000F5614080F80013704700F0E7
:1018A8000F000901C9B2014B1954704714ED00E04B
:1018B80000B500F00700C0F1070CBCF1040F28BF09
:1018C8004FF0040C031D062B0FD9C31E4FF0FF3E2B
:1018D8000EFA0CF021EA000199400EFA03FE22EA02
:1018E8000E0241EA02005DF804FB0023EEE7000067
:1018F800074AD36823F4E0631B041B0C000200F4BE
:10190800E060034343F0BF6343F40033D3607047A0
:1019180000ED00E010B50446054BD868C0F302207E
:10192800FFF7C6FF01462046FFF7AEFF10BD00BF18
:1019380000ED00E0002807DB00F01F02400901234A
:101948009340024A42F82030704700BF00E100E0AF
:101958000138B0F1807F0BD24FF0E0235861054A7F
:10196800F02182F823100020986107221A6170473D
:101978000120704700ED00E0044B0022DA61044AC0
:10198800136943F001031361018070473805002093
:10199800002002400C4BDB6813F0100305D00B4A03
:1019A800D36943F00203D3611023074AD26812F0C7
:1019B800040F06D00549CA6942F00102CA6143F022
:1019C8000403014AD3607047002002403805002014
:1019D8000A4B1B6913F0800F0BD0084B084A5A605A
:1019E80002F188325A601B6913F0800F03D100207E
:1019F8007047002070470120704700BF0020024058
:101A080023016745034A136943F0800313610020EB
:101A1800704700BF0020024038B50446FEF75CFF5F
:101A28000546144BDB6813F0010F0AD0B4F1FF3FF1
:101A3800F7D024B1FEF750FF401BA042F1D9032094
:101A480012E00C4BDB6813F0200F02D0094B202268
:101A5800DA60084BDB6813F0100F06D1054BDB6822
:101A680013F0040F01D1002038BDFFF793FF0120C8
:101A7800FAE700BF002002402DE9F8431E46244B38
:101A88001B7E012B41D004460F469046204B012275
:101A98001A764CF25030FFF7BFFF034678BB012C93
:101AA80008D0022C03D04FF004091C4607E04FF081
:101AB8000209FAE74FF00109F7E70134E4B24C45AF
:101AC8001DD22101C1F12002A1F1200328FA01F160
:101AD80006FA02F2114326FA03F3194389B207EB17
:101AE8004400FFF749FF4CF25030FFF795FF094BD0
:101AF8001D6925F001051D6103460028DDD0044A53
:101B0800002111761846BDE8F8830223FAE700BFE2
:101B18003805002000200240064B0022DA61064BFF
:101B28001A6942F004021A611A6942F040021A6105
:101B3800704700BF3805002000200240064B0022F5
:101B4800DA61064B1A6942F002021A6158611A6991
:101B580042F040021A617047380500200020024018
:101B6800264B1B7E012B45D070B505460E46234BF0
:101B780001221A760368934220D04CF25030FFF7C6
:101B88004BFF88BB4FF0FF3333606C680121AA68B4
:101B98006B6803EBC223A34227D92046FFF7CEFF89
:101BA8004CF25030FFF738FF154A136923F002034F
:101BB80013610146B0B904F50064E8E74CF250300F
:101BC800FFF72AFF08B101210FE0FFF7A5FF4CF24C
:101BD8005030FFF721FF0146094A136923F0040337
:101BE800136102E0346000E00121044B00221A7600
:101BF800084670BD02210846704700BF380500201E
:101C080000200240F0B583B0002362E085685E00E2
:101C18000324B44025EA0405CC68B4402C4384600E
:101C2800456825EA0C054C68C4F300149C402C4315
:101C380044605FE0DD08083550F8254003F0070CE4
:101C48004FEA8C0C4FF00F0E0EFA0CFE24EA0E0E23
:101C58000C6904FA0CF444EA0E0440F8254060E0EC
:101C6800032400E0002404FA0EF42C430CF1020CC7
:101C78004F4D45F82C404F4CA568D44325EA020641
:101C88004F6817F4801F01D042EA0506494DAE603F
:101C9800ED6804EA05064F6817F4001F01D042EA10
:101CA8000506444DEE606D6804EA05064F6817F4B2
:101CB800003F01D042EA05063E4D6E602D682C407B
:101CC8004E6816F4803F01D042EA0504394A146090
:101CD80001330A6832FA03F468D04FF0010C0CFAA9
:101CE80003FC1CEA0202F3D04C6804F00304013C34
:101CF800012C8BD94C6804F00304032C0CD0C46865
:101D08005D004FF0030C0CFA05FC24EA0C0C8C68FF
:101D1800AC4044EA0C04C4604C6804F00304022C90
:101D280088D004684FEA430E4FF0030C0CFA0EFCFF
:101D380024EA0C0C4C6804F0030404FA0EF444EA98
:101D48000C0404604C6814F4403FC1D01A4CA569D7
:101D580045F00105A561A46904F001040194019C02
:101D68004FEA930C0CF10205114C54F8255003F07E
:101D7800030E4FEA8E0E0F2404FA0EF425EA04052A
:101D8800B0F1904F3FF46EAF0C4CA0420AD004F56E
:101D98008064A04208D004F58064A0423FF460AF9C
:101DA800052460E701245EE702245CE703B0F0BD88
:101DB80000000140000401400010024000040048F7
:101DC8000AB18161704781627047436901EA030281
:101DD80021EA030141EA02418161704738B5364A78
:101DE800136843F001031360FEF776FD0446324B97
:101DF8001B6813F0020F07D1FEF76EFD001B0228C7
:101E0800F5D90324204638BD2B4A136823F0F8037C
:101E180043F0800313605168284B0B405360FEF772
:101E28005BFD0446244B5B6813F00C0F08D0FEF7EB
:101E380053FD001B41F288339842F3D90324E1E7AC
:101E48001F4B204A1A60204B1868FFF70FF9044609
:101E580008B10124D6E7184A136823F0847323F4E1
:101E680080331360136823F480231360FEF734FD76
:101E78000546114B1B6813F0007F06D0FEF72CFDBA
:101E8800401B0228F5D90324BCE70B4B00225A60FB
:101E9800DA621A63996841F41F0199609A604FF0F9
:101EA800807292FAA2F2B2FA82F2084B13449B00B3
:101EB80001221A60A6E700BF001002400CC0FFF81C
:101EC8000400002000127A000C00002020819010ED
:101ED800014B1860704700BF04000020DFF834D0C1
:101EE8000D480E490E4A002302E0D458C45004336A
:101EF800C4188C42F9D30B4A0B4C002301E0136041
:101F08000432A242FBD3FFF793F800F011F8FEF772
:101F1800DDFFFEE700400020000000201000002048
:101F2800A81F00081000002058050020FEE7000048
:101F380070B50D4D0D4C641BA4100026A64209D1A6
:101F48000B4D0C4C00F018F8641BA4100026A64298
:101F580005D170BD55F8043B98470136EEE755F8B2
:101F6800043B98470136F2E7A01F0008A01F0008AD
:101F7800A01F0008A41F0008F8B500BFF8BC08BCE3
:101F88009E467047F8B500BFF8BC08BC9E4670472F
:081F98004F70656E424C5400CD
:041FA000AD01000887
:041FA40089010008A7
:101FA8000400000000127A00010000001000000088
:0400000508001EE5EC
:00000001FF
